{
  "_format": "hh-sol-artifact-1",
  "contractName": "MyContract",
  "sourceName": "contracts/MyContract.sol",
  "abi": [
    {
      "inputs": [
        {
          "internalType": "string",
          "name": "name",
          "type": "string"
        },
        {
          "internalType": "string",
          "name": "symbol",
          "type": "string"
        }
      ],
      "stateMutability": "nonpayable",
      "type": "constructor"
    },
    {
      "anonymous": false,
      "inputs": [
        {
          "indexed": true,
          "internalType": "address",
          "name": "owner",
          "type": "address"
        },
        {
          "indexed": true,
          "internalType": "address",
          "name": "approved",
          "type": "address"
        },
        {
          "indexed": true,
          "internalType": "uint256",
          "name": "tokenId",
          "type": "uint256"
        }
      ],
      "name": "Approval",
      "type": "event"
    },
    {
      "anonymous": false,
      "inputs": [
        {
          "indexed": true,
          "internalType": "address",
          "name": "owner",
          "type": "address"
        },
        {
          "indexed": true,
          "internalType": "address",
          "name": "operator",
          "type": "address"
        },
        {
          "indexed": false,
          "internalType": "bool",
          "name": "approved",
          "type": "bool"
        }
      ],
      "name": "ApprovalForAll",
      "type": "event"
    },
    {
      "anonymous": false,
      "inputs": [
        {
          "indexed": true,
          "internalType": "address",
          "name": "from",
          "type": "address"
        },
        {
          "indexed": true,
          "internalType": "address",
          "name": "to",
          "type": "address"
        },
        {
          "indexed": true,
          "internalType": "uint256",
          "name": "tokenId",
          "type": "uint256"
        }
      ],
      "name": "Transfer",
      "type": "event"
    },
    {
      "inputs": [
        {
          "internalType": "address",
          "name": "to",
          "type": "address"
        },
        {
          "internalType": "uint256",
          "name": "tokenId",
          "type": "uint256"
        }
      ],
      "name": "approve",
      "outputs": [],
      "stateMutability": "nonpayable",
      "type": "function"
    },
    {
      "inputs": [
        {
          "internalType": "address",
          "name": "owner",
          "type": "address"
        }
      ],
      "name": "balanceOf",
      "outputs": [
        {
          "internalType": "uint256",
          "name": "",
          "type": "uint256"
        }
      ],
      "stateMutability": "view",
      "type": "function"
    },
    {
      "inputs": [
        {
          "internalType": "uint256",
          "name": "tokenId",
          "type": "uint256"
        }
      ],
      "name": "getApproved",
      "outputs": [
        {
          "internalType": "address",
          "name": "",
          "type": "address"
        }
      ],
      "stateMutability": "view",
      "type": "function"
    },
    {
      "inputs": [
        {
          "internalType": "address",
          "name": "owner",
          "type": "address"
        },
        {
          "internalType": "address",
          "name": "operator",
          "type": "address"
        }
      ],
      "name": "isApprovedForAll",
      "outputs": [
        {
          "internalType": "bool",
          "name": "",
          "type": "bool"
        }
      ],
      "stateMutability": "view",
      "type": "function"
    },
    {
      "inputs": [],
      "name": "name",
      "outputs": [
        {
          "internalType": "string",
          "name": "",
          "type": "string"
        }
      ],
      "stateMutability": "view",
      "type": "function"
    },
    {
      "inputs": [],
      "name": "owner",
      "outputs": [
        {
          "internalType": "address",
          "name": "",
          "type": "address"
        }
      ],
      "stateMutability": "view",
      "type": "function"
    },
    {
      "inputs": [
        {
          "internalType": "uint256",
          "name": "tokenId",
          "type": "uint256"
        }
      ],
      "name": "ownerOf",
      "outputs": [
        {
          "internalType": "address",
          "name": "",
          "type": "address"
        }
      ],
      "stateMutability": "view",
      "type": "function"
    },
    {
      "inputs": [],
      "name": "retrieve",
      "outputs": [
        {
          "internalType": "uint256",
          "name": "",
          "type": "uint256"
        }
      ],
      "stateMutability": "view",
      "type": "function"
    },
    {
      "inputs": [
        {
          "internalType": "address",
          "name": "from",
          "type": "address"
        },
        {
          "internalType": "address",
          "name": "to",
          "type": "address"
        },
        {
          "internalType": "uint256",
          "name": "tokenId",
          "type": "uint256"
        }
      ],
      "name": "safeTransferFrom",
      "outputs": [],
      "stateMutability": "nonpayable",
      "type": "function"
    },
    {
      "inputs": [
        {
          "internalType": "address",
          "name": "from",
          "type": "address"
        },
        {
          "internalType": "address",
          "name": "to",
          "type": "address"
        },
        {
          "internalType": "uint256",
          "name": "tokenId",
          "type": "uint256"
        },
        {
          "internalType": "bytes",
          "name": "data",
          "type": "bytes"
        }
      ],
      "name": "safeTransferFrom",
      "outputs": [],
      "stateMutability": "nonpayable",
      "type": "function"
    },
    {
      "inputs": [
        {
          "internalType": "address",
          "name": "operator",
          "type": "address"
        },
        {
          "internalType": "bool",
          "name": "approved",
          "type": "bool"
        }
      ],
      "name": "setApprovalForAll",
      "outputs": [],
      "stateMutability": "nonpayable",
      "type": "function"
    },
    {
      "inputs": [
        {
          "internalType": "uint256",
          "name": "num",
          "type": "uint256"
        }
      ],
      "name": "store",
      "outputs": [],
      "stateMutability": "nonpayable",
      "type": "function"
    },
    {
      "inputs": [
        {
          "internalType": "bytes4",
          "name": "interfaceId",
          "type": "bytes4"
        }
      ],
      "name": "supportsInterface",
      "outputs": [
        {
          "internalType": "bool",
          "name": "",
          "type": "bool"
        }
      ],
      "stateMutability": "view",
      "type": "function"
    },
    {
      "inputs": [],
      "name": "symbol",
      "outputs": [
        {
          "internalType": "string",
          "name": "",
          "type": "string"
        }
      ],
      "stateMutability": "view",
      "type": "function"
    },
    {
      "inputs": [
        {
          "internalType": "uint256",
          "name": "tokenId",
          "type": "uint256"
        }
      ],
      "name": "tokenURI",
      "outputs": [
        {
          "internalType": "string",
          "name": "",
          "type": "string"
        }
      ],
      "stateMutability": "view",
      "type": "function"
    },
    {
      "inputs": [
        {
          "internalType": "address",
          "name": "from",
          "type": "address"
        },
        {
          "internalType": "address",
          "name": "to",
          "type": "address"
        },
        {
          "internalType": "uint256",
          "name": "tokenId",
          "type": "uint256"
        }
      ],
      "name": "transferFrom",
      "outputs": [],
      "stateMutability": "nonpayable",
      "type": "function"
    }
  ],
  "bytecode": "0x60806040523480156200001157600080fd5b5060405162002b8838038062002b8883398181016040528101906200003791906200055c565b81818160009080519060200190620000519291906200030f565b5080600190805190602001906200006a9291906200030f565b505050620000b96040518060400160405280600481526020017f6e616d6500000000000000000000000000000000000000000000000000000000815250836200019a60201b62000a411760201c565b620001056040518060400160405280600681526020017f73796d626f6c0000000000000000000000000000000000000000000000000000815250826200019a60201b62000a411760201c565b620001516040518060400160405280600681526020017f73656e6465720000000000000000000000000000000000000000000000000000815250336200024060201b62000add1760201c565b33600760006101000a81548173ffffffffffffffffffffffffffffffffffffffff021916908373ffffffffffffffffffffffffffffffffffffffff160217905550505062000757565b6200023c8282604051602401620001b39291906200063e565b6040516020818303038152906040527f4b5c4277000000000000000000000000000000000000000000000000000000007bffffffffffffffffffffffffffffffffffffffffffffffffffffffff19166020820180517bffffffffffffffffffffffffffffffffffffffffffffffffffffffff8381831617835250505050620002e660201b60201c565b5050565b620002e2828260405160240162000259929190620006be565b6040516020818303038152906040527f319af333000000000000000000000000000000000000000000000000000000007bffffffffffffffffffffffffffffffffffffffffffffffffffffffff19166020820180517bffffffffffffffffffffffffffffffffffffffffffffffffffffffff8381831617835250505050620002e660201b60201c565b5050565b60008151905060006a636f6e736f6c652e6c6f679050602083016000808483855afa5050505050565b8280546200031d9062000721565b90600052602060002090601f0160209004810192826200034157600085556200038d565b82601f106200035c57805160ff19168380011785556200038d565b828001600101855582156200038d579182015b828111156200038c5782518255916020019190600101906200036f565b5b5090506200039c9190620003a0565b5090565b5b80821115620003bb576000816000905550600101620003a1565b5090565b6000604051905090565b600080fd5b600080fd5b600080fd5b600080fd5b6000601f19601f8301169050919050565b7f4e487b7100000000000000000000000000000000000000000000000000000000600052604160045260246000fd5b6200042882620003dd565b810181811067ffffffffffffffff821117156200044a5762000449620003ee565b5b80604052505050565b60006200045f620003bf565b90506200046d82826200041d565b919050565b600067ffffffffffffffff82111562000490576200048f620003ee565b5b6200049b82620003dd565b9050602081019050919050565b60005b83811015620004c8578082015181840152602081019050620004ab565b83811115620004d8576000848401525b50505050565b6000620004f5620004ef8462000472565b62000453565b905082815260208101848484011115620005145762000513620003d8565b5b62000521848285620004a8565b509392505050565b600082601f830112620005415762000540620003d3565b5b815162000553848260208601620004de565b91505092915050565b60008060408385031215620005765762000575620003c9565b5b600083015167ffffffffffffffff811115620005975762000596620003ce565b5b620005a58582860162000529565b925050602083015167ffffffffffffffff811115620005c957620005c8620003ce565b5b620005d78582860162000529565b9150509250929050565b600081519050919050565b600082825260208201905092915050565b60006200060a82620005e1565b620006168185620005ec565b935062000628818560208601620004a8565b6200063381620003dd565b840191505092915050565b600060408201905081810360008301526200065a8185620005fd565b90508181036020830152620006708184620005fd565b90509392505050565b600073ffffffffffffffffffffffffffffffffffffffff82169050919050565b6000620006a68262000679565b9050919050565b620006b88162000699565b82525050565b60006040820190508181036000830152620006da8185620005fd565b9050620006eb6020830184620006ad565b9392505050565b7f4e487b7100000000000000000000000000000000000000000000000000000000600052602260045260246000fd5b600060028204905060018216806200073a57607f821691505b60208210811415620007515762000750620006f2565b5b50919050565b61242180620007676000396000f3fe608060405234801561001057600080fd5b50600436106101005760003560e01c80636352211e11610097578063a22cb46511610066578063a22cb465146102ad578063b88d4fde146102c9578063c87b56dd146102e5578063e985e9c51461031557610100565b80636352211e1461021157806370a08231146102415780638da5cb5b1461027157806395d89b411461028f57610100565b806323b872dd116100d357806323b872dd1461019f5780632e64cec1146101bb57806342842e0e146101d95780636057361d146101f557610100565b806301ffc9a71461010557806306fdde0314610135578063081812fc14610153578063095ea7b314610183575b600080fd5b61011f600480360381019061011a91906115f1565b610345565b60405161012c9190611639565b60405180910390f35b61013d610427565b60405161014a91906116ed565b60405180910390f35b61016d60048036038101906101689190611745565b6104b9565b60405161017a91906117b3565b60405180910390f35b61019d600480360381019061019891906117fa565b6104ff565b005b6101b960048036038101906101b4919061183a565b610617565b005b6101c3610677565b6040516101d0919061189c565b60405180910390f35b6101f360048036038101906101ee919061183a565b610681565b005b61020f600480360381019061020a9190611745565b6106a1565b005b61022b60048036038101906102269190611745565b6106ab565b60405161023891906117b3565b60405180910390f35b61025b600480360381019061025691906118b7565b61075d565b604051610268919061189c565b60405180910390f35b610279610815565b60405161028691906117b3565b60405180910390f35b61029761083b565b6040516102a491906116ed565b60405180910390f35b6102c760048036038101906102c29190611910565b6108cd565b005b6102e360048036038101906102de9190611a85565b6108e3565b005b6102ff60048036038101906102fa9190611745565b610945565b60405161030c91906116ed565b60405180910390f35b61032f600480360381019061032a9190611b08565b6109ad565b60405161033c9190611639565b60405180910390f35b60007f80ac58cd000000000000000000000000000000000000000000000000000000007bffffffffffffffffffffffffffffffffffffffffffffffffffffffff1916827bffffffffffffffffffffffffffffffffffffffffffffffffffffffff1916148061041057507f5b5e139f000000000000000000000000000000000000000000000000000000007bffffffffffffffffffffffffffffffffffffffffffffffffffffffff1916827bffffffffffffffffffffffffffffffffffffffffffffffffffffffff1916145b80610420575061041f82610b79565b5b9050919050565b60606000805461043690611b77565b80601f016020809104026020016040519081016040528092919081815260200182805461046290611b77565b80156104af5780601f10610484576101008083540402835291602001916104af565b820191906000526020600020905b81548152906001019060200180831161049257829003601f168201915b5050505050905090565b60006104c482610be3565b6004600083815260200190815260200160002060009054906101000a900473ffffffffffffffffffffffffffffffffffffffff169050919050565b600061050a826106ab565b90508073ffffffffffffffffffffffffffffffffffffffff168373ffffffffffffffffffffffffffffffffffffffff16141561057b576040517f08c379a000000000000000000000000000000000000000000000000000000000815260040161057290611c1b565b60405180910390fd5b8073ffffffffffffffffffffffffffffffffffffffff1661059a610c2e565b73ffffffffffffffffffffffffffffffffffffffff1614806105c957506105c8816105c3610c2e565b6109ad565b5b610608576040517f08c379a00000000000000000000000000000000000000000000000000000000081526004016105ff90611cad565b60405180910390fd5b6106128383610c36565b505050565b610628610622610c2e565b82610cef565b610667576040517f08c379a000000000000000000000000000000000000000000000000000000000815260040161065e90611d3f565b60405180910390fd5b610672838383610d84565b505050565b6000600654905090565b61069c838383604051806020016040528060008152506108e3565b505050565b8060068190555050565b6000806002600084815260200190815260200160002060009054906101000a900473ffffffffffffffffffffffffffffffffffffffff169050600073ffffffffffffffffffffffffffffffffffffffff168173ffffffffffffffffffffffffffffffffffffffff161415610754576040517f08c379a000000000000000000000000000000000000000000000000000000000815260040161074b90611dab565b60405180910390fd5b80915050919050565b60008073ffffffffffffffffffffffffffffffffffffffff168273ffffffffffffffffffffffffffffffffffffffff1614156107ce576040517f08c379a00000000000000000000000000000000000000000000000000000000081526004016107c590611e3d565b60405180910390fd5b600360008373ffffffffffffffffffffffffffffffffffffffff1673ffffffffffffffffffffffffffffffffffffffff168152602001908152602001600020549050919050565b600760009054906101000a900473ffffffffffffffffffffffffffffffffffffffff1681565b60606001805461084a90611b77565b80601f016020809104026020016040519081016040528092919081815260200182805461087690611b77565b80156108c35780601f10610898576101008083540402835291602001916108c3565b820191906000526020600020905b8154815290600101906020018083116108a657829003601f168201915b5050505050905090565b6108df6108d8610c2e565b8383610feb565b5050565b6108f46108ee610c2e565b83610cef565b610933576040517f08c379a000000000000000000000000000000000000000000000000000000000815260040161092a90611d3f565b60405180910390fd5b61093f84848484611158565b50505050565b606061095082610be3565b600061095a6111b4565b9050600081511161097a57604051806020016040528060008152506109a5565b80610984846111cb565b604051602001610995929190611e99565b6040516020818303038152906040525b915050919050565b6000600560008473ffffffffffffffffffffffffffffffffffffffff1673ffffffffffffffffffffffffffffffffffffffff16815260200190815260200160002060008373ffffffffffffffffffffffffffffffffffffffff1673ffffffffffffffffffffffffffffffffffffffff16815260200190815260200160002060009054906101000a900460ff16905092915050565b610ad98282604051602401610a57929190611ebd565b6040516020818303038152906040527f4b5c4277000000000000000000000000000000000000000000000000000000007bffffffffffffffffffffffffffffffffffffffffffffffffffffffff19166020820180517bffffffffffffffffffffffffffffffffffffffffffffffffffffffff838183161783525050505061132c565b5050565b610b758282604051602401610af3929190611ef4565b6040516020818303038152906040527f319af333000000000000000000000000000000000000000000000000000000007bffffffffffffffffffffffffffffffffffffffffffffffffffffffff19166020820180517bffffffffffffffffffffffffffffffffffffffffffffffffffffffff838183161783525050505061132c565b5050565b60007f01ffc9a7000000000000000000000000000000000000000000000000000000007bffffffffffffffffffffffffffffffffffffffffffffffffffffffff1916827bffffffffffffffffffffffffffffffffffffffffffffffffffffffff1916149050919050565b610bec81611355565b610c2b576040517f08c379a0000000000000000000000000000000000000000000000000000000008152600401610c2290611dab565b60405180910390fd5b50565b600033905090565b816004600083815260200190815260200160002060006101000a81548173ffffffffffffffffffffffffffffffffffffffff021916908373ffffffffffffffffffffffffffffffffffffffff160217905550808273ffffffffffffffffffffffffffffffffffffffff16610ca9836106ab565b73ffffffffffffffffffffffffffffffffffffffff167f8c5be1e5ebec7d5bd14f71427d1e84f3dd0314c0f7b2291e5b200ac8c7c3b92560405160405180910390a45050565b600080610cfb836106ab565b90508073ffffffffffffffffffffffffffffffffffffffff168473ffffffffffffffffffffffffffffffffffffffff161480610d3d5750610d3c81856109ad565b5b80610d7b57508373ffffffffffffffffffffffffffffffffffffffff16610d63846104b9565b73ffffffffffffffffffffffffffffffffffffffff16145b91505092915050565b8273ffffffffffffffffffffffffffffffffffffffff16610da4826106ab565b73ffffffffffffffffffffffffffffffffffffffff1614610dfa576040517f08c379a0000000000000000000000000000000000000000000000000000000008152600401610df190611f96565b60405180910390fd5b600073ffffffffffffffffffffffffffffffffffffffff168273ffffffffffffffffffffffffffffffffffffffff161415610e6a576040517f08c379a0000000000000000000000000000000000000000000000000000000008152600401610e6190612028565b60405180910390fd5b610e758383836113c1565b610e80600082610c36565b6001600360008573ffffffffffffffffffffffffffffffffffffffff1673ffffffffffffffffffffffffffffffffffffffff1681526020019081526020016000206000828254610ed09190612077565b925050819055506001600360008473ffffffffffffffffffffffffffffffffffffffff1673ffffffffffffffffffffffffffffffffffffffff1681526020019081526020016000206000828254610f2791906120ab565b92505081905550816002600083815260200190815260200160002060006101000a81548173ffffffffffffffffffffffffffffffffffffffff021916908373ffffffffffffffffffffffffffffffffffffffff160217905550808273ffffffffffffffffffffffffffffffffffffffff168473ffffffffffffffffffffffffffffffffffffffff167fddf252ad1be2c89b69c2b068fc378daa952ba7f163c4a11628f55a4df523b3ef60405160405180910390a4610fe68383836113c6565b505050565b8173ffffffffffffffffffffffffffffffffffffffff168373ffffffffffffffffffffffffffffffffffffffff16141561105a576040517f08c379a00000000000000000000000000000000000000000000000000000000081526004016110519061214d565b60405180910390fd5b80600560008573ffffffffffffffffffffffffffffffffffffffff1673ffffffffffffffffffffffffffffffffffffffff16815260200190815260200160002060008473ffffffffffffffffffffffffffffffffffffffff1673ffffffffffffffffffffffffffffffffffffffff16815260200190815260200160002060006101000a81548160ff0219169083151502179055508173ffffffffffffffffffffffffffffffffffffffff168373ffffffffffffffffffffffffffffffffffffffff167f17307eab39ab6107e8899845ad3d59bd9653f200f220920489ca2b5937696c318360405161114b9190611639565b60405180910390a3505050565b611163848484610d84565b61116f848484846113cb565b6111ae576040517f08c379a00000000000000000000000000000000000000000000000000000000081526004016111a5906121df565b60405180910390fd5b50505050565b606060405180602001604052806000815250905090565b60606000821415611213576040518060400160405280600181526020017f30000000000000000000000000000000000000000000000000000000000000008152509050611327565b600082905060005b6000821461124557808061122e906121ff565b915050600a8261123e9190612277565b915061121b565b60008167ffffffffffffffff8111156112615761126061195a565b5b6040519080825280601f01601f1916602001820160405280156112935781602001600182028036833780820191505090505b5090505b60008514611320576001826112ac9190612077565b9150600a856112bb91906122a8565b60306112c791906120ab565b60f81b8183815181106112dd576112dc6122d9565b5b60200101907effffffffffffffffffffffffffffffffffffffffffffffffffffffffffffff1916908160001a905350600a856113199190612277565b9450611297565b8093505050505b919050565b60008151905060006a636f6e736f6c652e6c6f679050602083016000808483855afa5050505050565b60008073ffffffffffffffffffffffffffffffffffffffff166002600084815260200190815260200160002060009054906101000a900473ffffffffffffffffffffffffffffffffffffffff1673ffffffffffffffffffffffffffffffffffffffff1614159050919050565b505050565b505050565b60006113ec8473ffffffffffffffffffffffffffffffffffffffff16611562565b15611555578373ffffffffffffffffffffffffffffffffffffffff1663150b7a02611415610c2e565b8786866040518563ffffffff1660e01b8152600401611437949392919061235d565b602060405180830381600087803b15801561145157600080fd5b505af192505050801561148257506040513d601f19601f8201168201806040525081019061147f91906123be565b60015b611505573d80600081146114b2576040519150601f19603f3d011682016040523d82523d6000602084013e6114b7565b606091505b506000815114156114fd576040517f08c379a00000000000000000000000000000000000000000000000000000000081526004016114f4906121df565b60405180910390fd5b805181602001fd5b63150b7a0260e01b7bffffffffffffffffffffffffffffffffffffffffffffffffffffffff1916817bffffffffffffffffffffffffffffffffffffffffffffffffffffffff19161491505061155a565b600190505b949350505050565b6000808273ffffffffffffffffffffffffffffffffffffffff163b119050919050565b6000604051905090565b600080fd5b600080fd5b60007fffffffff0000000000000000000000000000000000000000000000000000000082169050919050565b6115ce81611599565b81146115d957600080fd5b50565b6000813590506115eb816115c5565b92915050565b6000602082840312156116075761160661158f565b5b6000611615848285016115dc565b91505092915050565b60008115159050919050565b6116338161161e565b82525050565b600060208201905061164e600083018461162a565b92915050565b600081519050919050565b600082825260208201905092915050565b60005b8381101561168e578082015181840152602081019050611673565b8381111561169d576000848401525b50505050565b6000601f19601f8301169050919050565b60006116bf82611654565b6116c9818561165f565b93506116d9818560208601611670565b6116e2816116a3565b840191505092915050565b6000602082019050818103600083015261170781846116b4565b905092915050565b6000819050919050565b6117228161170f565b811461172d57600080fd5b50565b60008135905061173f81611719565b92915050565b60006020828403121561175b5761175a61158f565b5b600061176984828501611730565b91505092915050565b600073ffffffffffffffffffffffffffffffffffffffff82169050919050565b600061179d82611772565b9050919050565b6117ad81611792565b82525050565b60006020820190506117c860008301846117a4565b92915050565b6117d781611792565b81146117e257600080fd5b50565b6000813590506117f4816117ce565b92915050565b600080604083850312156118115761181061158f565b5b600061181f858286016117e5565b925050602061183085828601611730565b9150509250929050565b6000806000606084860312156118535761185261158f565b5b6000611861868287016117e5565b9350506020611872868287016117e5565b925050604061188386828701611730565b9150509250925092565b6118968161170f565b82525050565b60006020820190506118b1600083018461188d565b92915050565b6000602082840312156118cd576118cc61158f565b5b60006118db848285016117e5565b91505092915050565b6118ed8161161e565b81146118f857600080fd5b50565b60008135905061190a816118e4565b92915050565b600080604083850312156119275761192661158f565b5b6000611935858286016117e5565b9250506020611946858286016118fb565b9150509250929050565b600080fd5b600080fd5b7f4e487b7100000000000000000000000000000000000000000000000000000000600052604160045260246000fd5b611992826116a3565b810181811067ffffffffffffffff821117156119b1576119b061195a565b5b80604052505050565b60006119c4611585565b90506119d08282611989565b919050565b600067ffffffffffffffff8211156119f0576119ef61195a565b5b6119f9826116a3565b9050602081019050919050565b82818337600083830152505050565b6000611a28611a23846119d5565b6119ba565b905082815260208101848484011115611a4457611a43611955565b5b611a4f848285611a06565b509392505050565b600082601f830112611a6c57611a6b611950565b5b8135611a7c848260208601611a15565b91505092915050565b60008060008060808587031215611a9f57611a9e61158f565b5b6000611aad878288016117e5565b9450506020611abe878288016117e5565b9350506040611acf87828801611730565b925050606085013567ffffffffffffffff811115611af057611aef611594565b5b611afc87828801611a57565b91505092959194509250565b60008060408385031215611b1f57611b1e61158f565b5b6000611b2d858286016117e5565b9250506020611b3e858286016117e5565b9150509250929050565b7f4e487b7100000000000000000000000000000000000000000000000000000000600052602260045260246000fd5b60006002820490506001821680611b8f57607f821691505b60208210811415611ba357611ba2611b48565b5b50919050565b7f4552433732313a20617070726f76616c20746f2063757272656e74206f776e6560008201527f7200000000000000000000000000000000000000000000000000000000000000602082015250565b6000611c0560218361165f565b9150611c1082611ba9565b604082019050919050565b60006020820190508181036000830152611c3481611bf8565b9050919050565b7f4552433732313a20617070726f76652063616c6c6572206973206e6f7420746f60008201527f6b656e206f776e6572206e6f7220617070726f76656420666f7220616c6c0000602082015250565b6000611c97603e8361165f565b9150611ca282611c3b565b604082019050919050565b60006020820190508181036000830152611cc681611c8a565b9050919050565b7f4552433732313a2063616c6c6572206973206e6f7420746f6b656e206f776e6560008201527f72206e6f7220617070726f766564000000000000000000000000000000000000602082015250565b6000611d29602e8361165f565b9150611d3482611ccd565b604082019050919050565b60006020820190508181036000830152611d5881611d1c565b9050919050565b7f4552433732313a20696e76616c696420746f6b656e2049440000000000000000600082015250565b6000611d9560188361165f565b9150611da082611d5f565b602082019050919050565b60006020820190508181036000830152611dc481611d88565b9050919050565b7f4552433732313a2061646472657373207a65726f206973206e6f74206120766160008201527f6c6964206f776e65720000000000000000000000000000000000000000000000602082015250565b6000611e2760298361165f565b9150611e3282611dcb565b604082019050919050565b60006020820190508181036000830152611e5681611e1a565b9050919050565b600081905092915050565b6000611e7382611654565b611e7d8185611e5d565b9350611e8d818560208601611670565b80840191505092915050565b6000611ea58285611e68565b9150611eb18284611e68565b91508190509392505050565b60006040820190508181036000830152611ed781856116b4565b90508181036020830152611eeb81846116b4565b90509392505050565b60006040820190508181036000830152611f0e81856116b4565b9050611f1d60208301846117a4565b9392505050565b7f4552433732313a207472616e736665722066726f6d20696e636f72726563742060008201527f6f776e6572000000000000000000000000000000000000000000000000000000602082015250565b6000611f8060258361165f565b9150611f8b82611f24565b604082019050919050565b60006020820190508181036000830152611faf81611f73565b9050919050565b7f4552433732313a207472616e7366657220746f20746865207a65726f2061646460008201527f7265737300000000000000000000000000000000000000000000000000000000602082015250565b600061201260248361165f565b915061201d82611fb6565b604082019050919050565b6000602082019050818103600083015261204181612005565b9050919050565b7f4e487b7100000000000000000000000000000000000000000000000000000000600052601160045260246000fd5b60006120828261170f565b915061208d8361170f565b9250828210156120a05761209f612048565b5b828203905092915050565b60006120b68261170f565b91506120c18361170f565b9250827fffffffffffffffffffffffffffffffffffffffffffffffffffffffffffffffff038211156120f6576120f5612048565b5b828201905092915050565b7f4552433732313a20617070726f766520746f2063616c6c657200000000000000600082015250565b600061213760198361165f565b915061214282612101565b602082019050919050565b600060208201905081810360008301526121668161212a565b9050919050565b7f4552433732313a207472616e7366657220746f206e6f6e20455243373231526560008201527f63656976657220696d706c656d656e7465720000000000000000000000000000602082015250565b60006121c960328361165f565b91506121d48261216d565b604082019050919050565b600060208201905081810360008301526121f8816121bc565b9050919050565b600061220a8261170f565b91507fffffffffffffffffffffffffffffffffffffffffffffffffffffffffffffffff82141561223d5761223c612048565b5b600182019050919050565b7f4e487b7100000000000000000000000000000000000000000000000000000000600052601260045260246000fd5b60006122828261170f565b915061228d8361170f565b92508261229d5761229c612248565b5b828204905092915050565b60006122b38261170f565b91506122be8361170f565b9250826122ce576122cd612248565b5b828206905092915050565b7f4e487b7100000000000000000000000000000000000000000000000000000000600052603260045260246000fd5b600081519050919050565b600082825260208201905092915050565b600061232f82612308565b6123398185612313565b9350612349818560208601611670565b612352816116a3565b840191505092915050565b600060808201905061237260008301876117a4565b61237f60208301866117a4565b61238c604083018561188d565b818103606083015261239e8184612324565b905095945050505050565b6000815190506123b8816115c5565b92915050565b6000602082840312156123d4576123d361158f565b5b60006123e2848285016123a9565b9150509291505056fea2646970667358221220a51bdadc7a65641cb47634cf569c540756b695a71de99d069f51a0640e1166a564736f6c63430008090033",
  "linkReferences": {},
  "deployedLinkReferences": {}
}